:020000041000EA
:1000000000B5324B212058609868022188439860DF
:10001000D860186158612E4B002199600421596104
:100020000121F02299502B49196001219960352056
:1000300000F044F80222904214D00621196600F024
:1000400034F8196E01211966002018661A6600F04E
:100050002CF8196E196E196E052000F02FF8012189
:100060000842F9D1002199601B49196000215960AB
:100070001A491B48016001219960EB211966A021F2
:10008000196600F012F800219960164914480160C1
:100090000121996001BC002800D000471248134993
:1000A000086003C880F30888084703B5996A0420EC
:1000B0000142FBD001200142F8D103BD02B5186610
:1000C0001866FFF7F2FF186E186E02BD00000240BE
:1000D000000000180000070000035F00212200005C
:1000E000F4000018222000A00001001008ED00E03C
:1000F000000000000000000000000000070B8FD58A
:10010000800F0020ED0D00102F2F0010D90D0010D2
:1001100000000000000000000000000000000000DF
:10012000000000000000000000000000210E001090
:100130000000000000000000990F0010411A00109C
:10014000391000103910001039100010391000104B
:10015000391000103910001039100010391000103B
:10016000391000103910001039100010391000102B
:10017000391000103910001039100010391000101B
:10018000391000103910001039100010391000100B
:1001900039100010391000103910001039100010FB
:0801A0003910001039100010A5
:1001A80002B4714649084900095C49008E4402BC02
:1001B8007047C046002934D00123002210B4884279
:1001C8002CD301242407A14204D2814202D209017E
:1001D8001B01F8E7E400A14204D2814202D249009F
:1001E8005B00F8E7884201D3401A1A434C08A04242
:1001F80002D3001B5C0822438C08A04202D3001BD8
:100208009C082243CC08A04202D3001BDC082243EE
:10021800002803D01B0901D00909E3E7100010BC2E
:10022800704701B5002000F00BF802BD0029F8D096
:1002380003B5FFF7C1FF0EBC4243891A1847C046F1
:100248007047C046D0400B00D1409C46203AD3406E
:100258001843524263469340184370471C210123B8
:100268001B04984201D3000C10391B0A984201D391
:10027800000A08391B09984201D30009043902A26F
:10028800105C40187047C0460403020201010101D6
:100298000000000000000000002B11D1002A0FD13F
:1002A800002900D1002802D00021C943080007B462
:1002B800024802A14018029003BDC04685FFFFFF17
:1002C80003B4684601B5029800F0D0FB019B9E4636
:1002D80002B00CBC7047C046F0B543025A0A85B05C
:1002E80044004F0003924A02240EC50F3F0E500AE5
:1002F80001909B09C90F9209E01B8D4200D096E03E
:10030800002836DD002F13D1002A07D0461E012809
:1003180002D101249B181EE0FF2810D1DB08FF281A
:1003280061D1002B5FD08022D203FF2013435AE013
:10033800FF2C00D13FE180210600C9040A430121B6
:100348001B2E07DC2020801B11008240F140501E2C
:10035800824111435B185A0100D414E1601CFE2C41
:1003680000D1D9E0012297491A405B080B4013439A
:100378005BE0002820D0381B002C08D1002B04D0CB
:10038800441E0128C5D0FF2808D11300C6E7FF2F57
:1003980000D10AE180210400C9040B4301211B2C70
:1003A80007DC2020001B19008340E140581E8341D0
:1003B80019433C008B18CEE7FE21601C084230D15F
:1003C800002C1BD1002B00D1EDE0002A00D1E1E088
:1003D8009A1880211000C9040840D3080A4202D0A4
:1003E8000120794A1340FF22C005D2055B02104064
:1003F8005B0A1843ED07284305B0F0BD002B00D178
:10040800D3E0002A00D1D1E080210398C9038842B3
:1004180003D30198884200D21300DB0801930295A8
:1004280081E0FF2878D09B185B080400ABE0002827
:1004380027DD002F1DD1002A00D16FE7461E0128B5
:1004480002D19B1A01240EE0FF2800D166E70121A2
:100458001B2E07DC2020801B11008240F140501E1B
:10046800824111435B1A5A0100D48CE09B019E091A
:1004780070E0FF2C00D19EE08021C90406000A43E9
:10048800E5E7002825D0381B002C0CD1002B07D01D
:10049800441E012802D10D00D31AD3E7FF2809D141
:1004A80013000D003AE7FF2F00D181E08024E40417
:1004B8002343040001201B2C07DC18002025E04002
:1004C8002C1BA3405C1EA34118433C000D00131ACB
:1004D800C9E7671CFE26BC46374002976746374285
:1004E80033D1002C1AD1002B06D11D00002A00D1CF
:1004F80079E70D00019B76E7002A4BD09C1A66012C
:1005080006D50D00D31A0020834200D16BE78CE793
:10051800231E00D002E70500002364E7002B05D165
:10052800002A4AD00291019B029DFCE6002A3DD098
:100538008020039CC003844200D26EE7019C844261
:1005480000D36AE713000D0067E79E1A770114D5F8
:100558000D00D61A3000FFF781FE330005388340BE
:1005680084420DDC2022001B0130121A190093402E
:10057800C1405A1E93410B43C5E7002ECBD0E9E793
:10058800124A241A13405A0704D00F221A40042A88
:1005980000D004335A010ED5601CFE2CBCD00A4A88
:1005A800DB0813401FE71300ADE71300FF20B5E693
:1005B80013000D00FAE72000B0E68023DB03019367
:1005C800B1E7C046FFFFFF7DFFFF7F1FFFFFFFFB77
:1005D800F0B5C30F85B0440245000391640A2D0E9F
:1005E80001932ED0FF2D39D08023E400DB047F3D1A
:1005F8001C4302950027039B5D025E00DB0F6D0A1A
:10060800360E039330D0FF2E3BD08023ED00DB0461
:100618001D4333007F3B00210398019A4240029812
:10062800D2B2C31AB800084301380E2842D8FFF7DF
:10063800B7FD6CA87EA89DA87E6C6C9D7E2E2E2E84
:10064800720001270294002CD5D02000FFF706FE87
:10065800773F431F9C403B1A0293CBE70327029541
:10066800002CC8D1013FC6E72B000121002DD3D0B3
:100678002800FFF7F3FD431F9D4076235B421B1ABA
:10068800C9E733000321002DC6D10139C4E7390079
:10069800019A022939D0032900D170E000252800E9
:1006A80001291ED16D026D0AC0052843D2071043E7
:1006B80005B0F0BD64016D01AC4228D31A200121B8
:1006C800641B0126270049006400002F01DBA542B6
:1006D80001D8641B314301380028F3D1601E8441DE
:1006E8000C4318007F30002824DD610704D00F2157
:1006F8002140042900D00434210103D58033180097
:1007080023490C40E508FE28CCDD00250DE01B2020
:100718000021013BD5E78023DB031C4201D01D42A9
:1007280029D08025019AED032543FF20BAE72C0044
:10073800039AAEE701210025091A28001B29B1DC1C
:100748009E3325009C40CD40631E9C4125436B078A
:1007580004D00F232B40042B00D00435802328001D
:10076800DB0418401D420FD1ED089BE700238024CD
:100778000193E403D5E7039B2C000193D1E7019291
:10078800CFE7002528008DE7002501208AE7C0462D
:10079800FFFFFFF7F0B5C30F85B047024400039190
:1007A8007F0A240E02930AD0FF2C71D080227F3C4E
:1007B80026000023FF00D204174301930CE0012315
:1007C8003E1E019308D03800FFF748FD7626431FE8
:1007D8009F407642361A0194039B5C025D00DB0F52
:1007E800640A2D0E03935AD0FF2D64D0802328006D
:1007F800E400DB041C437F38002301998619880034
:10080800721C18430A2800DD7EE00299039D6940A6
:100818000291022855DC0138012864D9B9B20D00CB
:100828003B0C200CA4B2654341435C434343091984
:100838001F002B0C5B189C4202D9802149027F18AB
:100848001904ADB24D19AC01611E8C411B0CAD0EE3
:10085800DB192C439B011C431B0167D5012361084D
:100868001C400C4310007F30002861DD630704D072
:100878000F232340042B00D00434230103D58032F6
:1008880010003F4B1C40E108FE2834DD00214BE0FE
:10089800032326000193002F9ED1013B8DE7200002
:1008A8000123002CA9D0FFF7D9FC431F9C407623D5
:1008B8005B42181AA0E728000323002C9DD1013BB6
:1008C8009BE701218140A6200D00C00005400142A0
:1008D8001ED190208000014246D1B938FF3801422C
:1008E8009CD003990291022BD0D0032B42D0002137
:1008F8000800012BB6D1029B4902490AC0050843EA
:10090800DB07184305B0F0BD0F2804D00B28E8D04A
:100918003C00019BE7E78023DB031F4201D01C4218
:1009280026D08021C9033943FF20E4E7320099E744
:10093800012300211B1A08001B2BDCDC9E3221003E
:100948009440D940631E9C4121434B0704D00F2398
:100958000B40042B00D0043180230800DB0418402E
:10096800194209D1C908C6E780270295FF03D8E7CD
:10097800039B02932700D4E700210120BBE7C04670
:10098800FFFFFFF741024300C20F490A00201B0E78
:100998007E2B03DD9D2B02DD084BD018704780208D
:1009A80000040843952B05DD963B9840002AF5D0B6
:1009B8004042F3E79621CB1AD840F7E7FFFFFF7FC5
:1009C800002310B50400984209D0FFF747FC9E2386
:1009D8001B1A962B08DC082829D0083884406402A2
:1009E800D805640A204310BD992B1BDD02002100A5
:1009F8001B3291400A00511E8A410521091ACC4038
:100A080014430C4A224061070FD00F210C40042CDC
:100A18000BD00432D408510107D59F23064A1B1A6C
:100A28001440DCE7421F9440EBE7D408D7E796234D
:100A3800D5E7C046FFFFFFFBFFFF7F1F9140030084
:100A480090409C46203A9340194352426346D34013
:100A58001943704710B5002903D1FFF7FFFB203079
:100A680002E00800FFF7FAFB10BDC046F0B587B0FA
:100A780006000F00059204938B4200D966E001D16D
:100A8800824263D804990598FFF7E4FF3900019082
:100A98003000FFF7DFFF019B04991B1A1A00059825
:100AA8000193FFF7CBFF04000D00B94246D801D1EE
:100AB800B04243D801200021019AFFF7BFFF361B3F
:100AC800AF4102900391019B002B2ED0E9076208E9
:100AD8000A4301996B088C4601240025BB4232D891
:100AE80001D1B2422FD830003900801A994100183C
:100AF80049410019694106000F00012149428C440F
:100B080061460029EAD1029C039D30003900019A10
:100B1800FFF798FB019AA4197D4106000F00FFF723
:100B28008DFF241A8D41029403950C9B002B01D054
:100B38001E605F600298039907B0F0BD0022002391
:100B480002920393BFE7B6197F41D6E7002300243A
:100B580002930394E9E7000010B5024802F0C9F9CE
:100B6800002010BD503C001010B5024B1B68984780
:100B780010BDC04600000020014B18607047C046F9
:100B8800000000207FB505000E00102200216846F5
:100B980002F0C6FD6C460223A370044B3200290004
:100BA8006846019301F06CFE7FBDC046710B0010D2
:100BB800F7B504000D001E00019201F0FDFB0300D3
:100BC80000F046FA054F32003B5001992800A04733
:100BD80000F03EFA385800F0BFF9C046080000009F
:100BE80010B5034A03480021121A02F08EF910BD0D
:100BF80080020020780000200648074A10B5121A23
:100C0800064902F086F9064A06480749121A02F010
:100C180080F910BD0000002078000020943E0010EC
:100C28000000002000000020943E001070B5050070
:100C38000C1E13D08B684A680F48096802F059F9EE
:100C48000E4863692269E16802F053F90C48E169CA
:100C580002F04FF90B48A16902F04BF9012D05D1BB
:100C6800EFF305810848103902F043F92800210004
:100C780001F066F970BDC0466A3C00109A3C00104D
:100C8800CA3C0010DA3C0010093D001030BFFDE7F7
:100C9800F7B50A4B0A4D0600EF18CC1B2A002000B6
:100CA8000849019302F033FD60190021019A02F00E
:100CB80037FD3800083C74660830FEBD04000000AB
:100CC80000000000E83A0010F0B5314B04005F68FE
:100CD80089B0FD05ED0D62B6BFF36F8F130EFF2BC4
:100CE80006D1F33B1340082B3BD12A4802F001F907
:100CF80000263400032D3AD1274802F0FAF8A369F8
:100D0800264A934202D3264A934205D3254A934260
:100D180038D3254A934235D2023B1B88FF2218005C
:100D2800DF219043090288422CD11340022B29D19C
:100D38001E48216802F0DDF8276820222100684655
:100D480002F0E5FC6D46079B002E1DD0DA0502D1A6
:100D5800174A1343EB6129003800FFF767FF09B012
:100D6800F0BD01261207C5D50C000026C2E7F823FE
:100D78005B0010491F4200D10F492A000F48103A62
:100D880002F0B7F80027D8E75B0A5B02E2E7C04643
:100D980000ED00E04B3D0010773D0010A801001069
:100DA8005C38001000000020000000208F3D00107B
:100DB800FF010000323D00101D3D0010AC3D001049
:100DC8000821024A53698B435361704700ED00E0E4
:100DD800EFF30880EFF3098101B57246FFF774FF5E
:100DE80001BDC046094880F3088872B60848094919
:100DF800401880F30988EFF314800221084380F338
:100E08001488BFF36F8F02F09AF80000800F00205B
:100E1800800200200008000004207146014202D030
:100E2800EFF3098001D1EFF308808169023909786D
:100E38000229FFD001B5724602F06FF801BDC04625
:100E480043B2000605D41F221A4001239340014AE9
:100E58001360704700E100E030B5FF2503220B0066
:100E6800290040B20240D20091409B012B40C94367
:100E7800934000280ADBC0240A4A800880008018B2
:100E8800A40002590A401343035130BD0F221040F9
:100E98000838054A800880008018C2691140194343
:100EA800C161F2E700E100E000ED00E0FF22044B41
:100EB8009343044A9360BFF34F8FBFF36F8F70471C
:100EC8000001001000ED00E010B5203A1360029B0D
:100ED80001245360039B06499360049BA143D3609C
:100EE80080235B04D361002391610265836610BD92
:100EF800B90B001070B50B4B15009860426E0A4B89
:100F08000E001A602C1C86F309880020034B9847B2
:100F1800201C002100220023014C2047632F0010D1
:100F2800B90B001050020020F80100201022014BDC
:100F38001A61704700ED00E0054B5A699B689A42B8
:100F480005D08023034A5B0551680B435360704703
:100F58005002002000ED00E010B50A4B9B68834268
:100F68000DD1EFF30583002B09D08022064B5205E3
:100F780059680A435A605A6A04490A405A6201F099
:100F880021FA10BD5002002000ED00E0FF7FFFFFB6
:100F980015498A6815481044EFF3098CF0C0434698
:100FA8004C4655465E466746F8C072B6104F114E1D
:100FB8004A698A603E60104C141920680F4C206002
:100FC800906E00239366002800D162B6074C101972
:100FD8001030F8C89846A146AA46B346BC462438FD
:100FE800F0C88CF3098870475002002030000000D8
:100FF80004ED00E00000000864000000F801002093
:10100800F0B5C02400220326FF25A40010002F00FD
:101018003040C0008740054993089B005B18195968
:101028000132B94319511A2AF0D1F0BD00E100E0AC
:1010380010B5EFF30583054A103BDB00D11849686A
:1010480098588847FFF778FF10BDC0463039001020
:101058000148006870470000F801002010B5024BF5
:101068001B689847002010BDFC010020034B044A70
:101078001860022391780B4393707047FC0100209D
:101088000400002010B5044801F033FF62B6BFF336
:101098006F8F0423181C02DFC03D0010072310B512
:1010A8000449054A99430548521A01F0CFFE002029
:1010B80010BDC046870F0020002004200002002039
:1010C80049B24368102916DC0A290BD00B2910D025
:1010D8000C224A431B689B18802292019B1880228D
:1010E800120103E09B68054A9B182D2200201A6014
:1010F8007047DB68F7E716204042F9E70430000044
:1011080049B24368102916DC0A290BD00B2910D0E4
:101118000C224A431B689B18C02292019B1880220C
:10112800120103E09B68054A9B182D2200201A60D3
:101138007047DB68F7E716204042F9E70420000013
:101148000200081F0B0010B5072805D8FFF728F87C
:101158000D1B232727272E2E11680C225343144AD0
:101168005B58DB051B0FD0560CE0124A0E201368A3
:10117800116803220C001440114203D00E4A0238B1
:10118800022CEED110BD0D4A042013681268920794
:10119800F8D00B4AE5E70B4B0B4A1B68E1E70C213B
:1011A80059430A4B0A4AC9180B68DAE70C20E9E7E1
:1011B800883E001030800040853E00103C80004092
:1011C8007F3E001048800040783E001000800040BC
:1011D800723E0010F8B506000C0075682100280062
:1011E800376901F0E9FE002800D16FE00E2C00D924
:1011F8006CE02000FEF7D4FF0A0A0A0A0A0A2C0A41
:101208000A0A3232086468003148F8BD2100280013
:101218002F68FFF795FF01003000FFF7DBFF0C2375
:101228006343FB185E68051C5868C0B2FFF7C8FB2B
:101238002849FFF7CDF9041C300AFFF7C1FB011C50
:10124800201CFFF749F8011C281CFFF7C1F9DCE74F
:1012580006212800FFF774FF0400BEE70A2C2DD1F1
:10126800AF6821002800FFF76BFF01003000FFF78F
:10127800B1FF061CB868FFF7A3FB311CFFF78AFA19
:10128800061C3F203D68FC682840FFF799FB011CBD
:10129800301CFFF79DF90725061C200C2840FFF796
:1012A8008FFB011C301CFFF793F9FF68041C380BF7
:1012B8002840FFF785FB011C201CC6E7EF68D0E734
:1012C8003868FFF77DFBA0E77868FAE700209CE71D
:1012D800001B374B00007F43802310B5084A5B048E
:1012E8001360084A94691C4202D01620404210BD7F
:1012F80001609269100018401A42F8D0F5E7C0461C
:101308001830064000000640F0B544688FB0A36866
:1013180022220393E368604905A804932668276995
:1013280002F0F5F95D4B5E4A1A605E4B5E4A136047
:101338001D005E4A12689543FAD10C21280000F07E
:1013480021FDB56700F00AFD0321594BDA6B8A438A
:10135800DA635A6C012AFCD103211A6B8A431A6397
:101368009A6B012AFCD1E269524B03985A43636A8B
:101378000093236AA16900F08BFCE26A4D4B049844
:101388005A43636B0093A16A236B00F081FC11211F
:1013980005A801F055FE6B0005AA9956C8B20928A0
:1013A80065D90135112DF6D1C02380229B01120188
:1013B800F3181A60404BAA25F3181A603F4B3800FF
:1013C800F3181A603E4B2D01F3181A602300D83326
:1013D800196814302943FFF77FFF002852D12300F2
:1013E800DC331B68374938001943FFF775FF0028BD
:1013F80048D12300E0331B68002B47D029001F2B5E
:1014080000D8591938001030FFF766FF002839D185
:101418002600E43631682C4D89B22943381DFFF780
:101428005BFF00282ED1380031680830090C2943A9
:10143800FFF752FF002825D1244B1B4A13601B4B92
:101448001B68DB43DB01DD09002BF8D1290060694B
:1014580002AA01F0E6FE00281ADB029B2A0019798D
:10146800186801F0F1FE002812DB00200CE00901E9
:1014780061180B6C00934B6CCA6B896B02F04CF8CB
:1014880000288ED1162040420FB0F0BD1049B9E7B0
:10149800831CEAD0F8E7C046E83A001000E00040B4
:1014A800BFCDFBFEFE7F3C0000F0004008C00040BE
:1014B80000800040001BB7000C300000183000000E
:1014C8002430000000B0FA0000009696FFFFFF01EC
:1014D800A10A000010B5084802F070F8002808D0EA
:1014E800064C2000FFF7C2FD2000FFF745FB002057
:1014F80010BD13204042FBE7DC380010091500102E
:1015080070B50400074D0A2804D1AB680D212800E6
:101518005B689847AB6828005B68E1B29847200091
:1015280070BDC046DC380010D0231B061B685A4229
:1015380053412F225B429343064A9B181A001068B6
:10154800002804D10432D11A0C29F8D97047012097
:10155800FCE7C04650410140F7B503690700019315
:10156800D0231B061C68002563425C412F2364427C
:101578009C43184BE418EB081A00083292001159E2
:1015880007222A409200D1400F20014203D10135A1
:101598001E2DF0D1F7BD0F2191403C330E4A9B0020
:1015A8009950019B59680029F1D00123AB400E687E
:1015B80000930029EBD08B68009A00981A400342E8
:1015C80002D038004B689847331E00D0336831008A
:1015D8001E00EEE7304101400040014070B50D00AB
:1015E800141E10D11100280000F004FC284BAD0097
:1015F800EB181A6880235340C0221340254AAD18BF
:101608002B60002070BD9206E1060669D20F280003
:10161800C90F00F0EFFB0521280000F0D3FB802361
:1016280021005B0219401C421BD00123D022AB4091
:1016380012069362A303E4D501200300F268AB40CD
:10164800A10719D51A43F260D0223169120665073D
:101658000BD519433161A40C936104420AD053623B
:10166800CFE7280000F05EFCE4E799433161E40C21
:101678005361F2E79362C4E79A43F260D0221206FC
:10168800210301D55361EAE76403E8D59361E6E7EE
:1016980004C0014004D0014001208840034B1B686E
:1016A8000340591E8B4100201370704700C0004052
:1016B80001238B40014A00201360704700E000407E
:1016C80001238B40034A0449136018000A689043B9
:1016D800FBD1704700F0004008C0004001238B4058
:1016E800044A05491360054A136018000A689043C4
:1016F800FBD1704700E0004008C0004000F0004007
:1017080010B5436800691B68007A1A6B002803D17A
:1017180007480240824208D19C69102220001040EC
:10172800144202D11B680B7010BD01204042FBE738
:1017380001020000436803491A68936B0B409363E6
:101748007047C0467FF8FFFFF0B5436889B006933D
:10175800036901910593069B07921B680500049392
:10176800059B1B7A002B00D090E0002A0BD00122A9
:101778001021049B1B6B9343049A136343681A68F4
:10178800D36A8B43D362049BDC6AEE239C43019BA0
:101798001B79012B06D0022B16D0002B04D08620F3
:1017A80040425CE002231C43019B5B79012B03D080
:1017B800032BF4D105331C43019B98790328EED8F9
:1017C800FEF7EEFC060413150623ECE720231C4362
:1017D800019BDB79002B0CD0012BE0D16B681A68D8
:1017E800C023116B1B020B4308E04023EFE7602383
:1017F800EDE76B6827491A68136B0B401363059B69
:1018080040267642F717D868019B810E1A68800136
:1018180000231201FEF740FD0290039102980399FC
:1018280036184F416B681A68002F2DD11A4B9E420B
:101838002AD8039B9906029B9B090B4353623F23BB
:10184800029919409162BFF35F8FD36A0199D362FD
:10185800049B08220598DC6201F059FF3800079BB9
:10186800002B0FD0069B1B7F002B05D16B681A68D5
:101878001023D16A0B43D3626B681A680123116B7A
:101888000B43136309B0F0BD162089E78620404258
:10189800F8E7C046FF3FFFFF80FF3F00F0B545680F
:1018A80004000769A8682E6885B0002859D12869FE
:1018B800002860D13B7A0193002B31D11900686868
:1018C80003AA01F0AEFC002853DB039B019A1979A7
:1018D800186801F0B9FC00284BD16B6A002B01D0C5
:1018E80020009847012163681A68136B8B431363C0
:1018F80063680F311A68D36A8B43D3622B6A002B53
:101908004AD1002239002000FFF71EFF102373631D
:101918002A7F002A04D162681268D16A0B43D36215
:101928000023B363244B73643B7A002B0DD1B3645B
:10193800BFF36F8F0222336B93433363C023326B41
:101948009B0013433363BFF36F8FAB69002B03D046
:101958002000984701233B743B7A002B22D00020BB
:1019680007E0E9688368DB68002B22D098470028E5
:101978009DD005B0F0BD836869691B68002B00D055
:1019880098473A002869696983680C32DB68002B3C
:1019980000D18FE798478DE72000F968984700281D
:1019A800AFD0E6E763681A680123116B0B43136332
:1019B800D5E758204042DCE7FF07000030B50C4966
:1019C8000C4A8C6812680D688B68002C00D11400D2
:1019D800002B00D113000848ED0301D49C4203D228
:1019E8000468A4180460096800688018C01A30BD2B
:1019F80010E000E024020020200200200020084A15
:101A0800136A1B021B0A1362064B074A1A60074B2C
:101A1800074A1860074B5A60072298601A60704797
:101A280000ED00E024020020D43000002002002055
:101A3800D330000010E000E0F8B50024FFF7BEFF47
:101A4800114E23003168114D0A0028686968801812
:101A58005941286069600E4D34600E492E686F68E0
:101A6800801BFEF7A7FB0B49230041430A0092198C
:101A78007B412A606B60EFF3108172B600F08EFE36
:101A8800FFF75AFAF8BDC046200200208000002067
:101A980078000020D4300000F0B53B4B3B4D87B0B8
:101AA800002960D0421C08D101212A688A432A6093
:101AB800FF2212061A6007B0F0BD1B6803930023CB
:101AC8000293012854DCEFF31083059372B6FFF7F5
:101AD80075FF00221100AB6804932D4B1E685F68E8
:101AE80036184F413000390018605960294B00966C
:101AF80001971A60284B1C68009B1B1B93423EDB16
:101B0800264F0298264A78438018C0183900FEF7F5
:101B180051FB009B7843E41A80232018DB0098428D
:101B280000D218001F4B984200D918000024164B09
:101B380018600138A9686860AC60049B144D04986B
:101B48005E1A2A686B6888421CD2039FB819210064
:101B580012184B412A606B60059B002BABD162B613
:101B6800BFF36F8FA7E71B680393431CA7D10E48E9
:101B78000E4B984200DD1800431E0293A3E7802015
:101B8800C000D3E73000E2E72402002010E000E0C4
:101B9800800000202002002078000020D4300000BF
:101BA800D330000084C6FF003D0500003E0500005C
:101BB80070B5EFF3108572B6084A094B14681B68B4
:101BC800E41AFFF7FBFE0019002D02D162B6BFF33D
:101BD8006F8F0449FEF7EEFA70BDC0468000002002
:101BE80078000020D4300000F7B50C24444301935A
:101BF800254B0092E4186368089A05000E0093428A
:101C080000D26260C0232F1F9B01FFB2E318012F8F
:101C180029D8012E27D103221A60A3683342FCD0A9
:101C2800009B22685B015340E0221340802252014E
:101C3800A2181360012F09D80321236873400B40B1
:101C480013600123B340A2681342FCD08023802292
:101C58009B01E31812011A60089B019A63600B4B01
:101C6800AD00EA50F7BD802212011A60074BAA00A6
:101C7800D1580029D4D05869FEF79CFA431C032098
:101C880058430338FDD2CBE70080004028020020EB
:101C9800F8B51700040029480D001E00FEF78AFA5F
:101CA800274B0100FA18274B9A4201D901F062F933
:101CB8003800FEF77FFA02009823103A5B009A4238
:101CC800F4D8731E062BF1D8069B013B062BEDD8E2
:101CD800069B32041E0323681643002B0FDA3F22AB
:101CE80023681340AB420AD1A3681B051B0D83422E
:101CF80005D1EE22E368D2021340B3421CD0124B46
:101D08001249E21853425A4101230C329340104AB7
:101D18001360104A13601F000A6897433A1EFAD1ED
:101D28000D4B2132E3182560A0601A602268002A52
:101D3800FCDA0822E6601A60F8BDC046001BB7004E
:101D480080E84BD380F8A9320040FDBF08C00040AE
:101D580000E0004000F0004004300000AA22064BDA
:101D680012011A608D225200DA600449044A116097
:101D78005A68002AFCDA70470040024000B0FA00B6
:101D8800006002408023024A9B000B43D3627047E5
:101D98000080054030B50725C408284080008140F0
:101DA8002000074D3C308000A40041511B19002A37
:101DB80004D0802292019B18196030BDC022F9E737
:101DC8000040014010B5084B8200D3181C6840231E
:101DD8006340C0242340054CC00012191360044B13
:101DE800C018416010BDC04604C0014004D0014085
:101DF80000400140064B8000C3181B68C9009200D0
:101E08000A435A400C231A40024BC018026070471C
:101E180004C0014004D00140064BC000C3181B6831
:101E280009075940C0239B051940034BC01801609E
:101E38007047C0460440014004500140064BC000B2
:101E4800C3181B6809045940C0239B021940034B5F
:101E5800C01801607047C04604400140045001406A
:101E6800064BC000C3181B6809025940C0239B00D9
:101E78001940034BC01801607047C0460440014038
:101E880004500140064BC000C3181B6809035940A1
:101E9800C0239B011940034BC01801607047C0461E
:101EA800044001400450014002238000002903D06F
:101EB800024A801803607047014AFAE704E00140CB
:101EC80004F00140054B8000C3181B6859400123EA
:101ED8001940034BC01801607047C04604C0014058
:101EE80004D00140054B8000C3181B680901594004
:101EF80030231940024BC0180160704704C00140EC
:101F080004D00140D02310B51B061B685C42634116
:101F18002F245B42A343024C1B19FFF73BFF10BD64
:101F28003041014040238000002903D0024A801834
:101F380003607047014AFAE704E0014004F00140F9
:101F480070B5EFF3108572B6064B9C6801F046FB3E
:101F5800002D02D162B6BFF36F8F2000FEF7FCFFA1
:101F680070BDC04650020020F8B501270A4E830014
:101F78009D59013084003359AB4200D8F8BD6868D8
:101F8800002806D0037E3B4201D101F0FEFA083555
:101F9800F1E72B689847FAE7383C0010012270B542
:101FA800234B86B003201A70FFF7DEFF00F060FCB9
:101FB8000420FFF7D9FF1F4C26001F4DAC420ED35B
:101FC80000F0B8F9AE4220D300F0C4F9FEF7C4FD22
:101FD80001211A4A93898B43938106B070BD636AC5
:101FE8000593236A0493E3690393A36902936369DE
:101FF800019323690093E368A2686168206800F090
:10200800ABF823685C653034D7E7B26AF36A511CD1
:1020180001D1591C05D011003068194303D101F0D2
:1020280026FB3036CEE70649183000F027FBF8E7E4
:102038007C020020003A0010003A0010F80000204E
:102048005D36001070B57026012504004643010274
:10205800114880220918002086B004950E35039592
:10206800053565430D4B0590029001900C48F61814
:102078002D180C4B30000095520000F06DF804222A
:10208800337C2C74934333740134074BE402E41813
:10209800EE606C6006B070BD800A002088000020E9
:1020A80050020020EB35001080020020F0B500201F
:1020B80087B0FFF759FF1F4B83F308881E491F4B52
:1020C8000A6A00251A40C0231B0413430B62FEF75B
:1020D80077FEFEF72BFF1A4800F078F80120FFF78B
:1020E80043FF0220FFF740FF00F05CF9154C164B48
:1020F80080225C61154B164E059301231549049304
:10210800D20033002000039502950195009500F058
:1021180023F804220700237C20009343237401F052
:102128007AFA2800FFF78EFF320039002000FEF708
:10213800E1FEC046800A002000ED00E0FFFF00FF3E
:1021480068010020F800002050020020243E001002
:10215800A51F0010800B0020F0B587B00593030081
:1021680058338365C365109B0727838104230025A3
:102178000732BA430374D2190F9BBA4383738B187F
:102188000E0085601900C5738561C561040004935C
:10219800FEF77EFD049BC019B8431F1A0E9B3A0038
:1021A80002930D9B310001930C9B20000093059B2B
:1021B800FEF78AFE044B65659B68AB4200D01B6E38
:1021C8003800236607B0F0BD5002002001230374D5
:1021D800838100230366014B9860704750020020FA
:1021E8000B21084A49429368D966986680230649B4
:1021F8005B05486803434B6062B6BFF36F8F936813
:10220800D86E70475002002000ED00E0102370B532
:10221800C356027C002B31DBD3062FD180235B42CF
:1022280013431A4C0374A3691949E2698B4207D115
:10223800016042601060E0610FE09A42F8D01B68CC
:10224800002BF5D00E260E259E574557AE42F4DDDD
:102258005A680360426010605860A5698D4201D0D9
:10226800002D00D1E568A3681A7CD20607D1DA8967
:102278007F2A04D9AA69002A01D1636170BDAB42E3
:1022880002D0280000F062F96561F7E750020020EB
:102298006802002010B500280AD1EFF30580002855
:1022A80007D1064B5A699B689A4202D0FFF798FFFC
:1022B80010BD62B6BFF36F8FFAE7C0465002002028
:1022C80070B51A4CA168E3690A68CB1A581E834195
:1022D80049685B420A6051601340E169A268002BBB
:1022E80005D1134B516013600A60E2610AE00E25C4
:1022F8000E205D571056854213DD596813605160F2
:102308000A605A60A5690A4B9D4201D0002D00D190
:10231800E568A3689D4202D0280000F017F96561BE
:1023280070BD8B42DDD01B68D9E7C0465002002043
:1023380068020020EFF3108172B6054B9A68D37BD0
:10234800013BD373002902D162B6BFF36F8F704788
:102358005002002070B5EFF3108672B60F4DAB68CF
:10236800DA7B0132DA73AC690D4A944201D0002C51
:1023780000D1EC681A7CD20605D1DA897F2A02D905
:10238800A269002A05D09C4202D0200000F0DEF8A5
:10239800230030006B61FFF77DFF70BD5002002005
:1023A80068020020024B034A9A61DA617047C0460E
:1023B8005002002068020020014B98687047C04610
:1023C80050020020F7B5838904000193EFF31083CE
:1023D800009372B60823027C1A4206D0009B002B99
:1023E80002D162B6BFF36F8FF7BD1900114348B22F
:1023F800002857DB2174A368002B02D0200001F0CD
:10240800FFF820002600183001F04DF95836A56D68
:10241800AE4201D0002D4DD1304F0025BB689C4203
:1024280004D1EFF305856A1E9541EDB2BE692C4AC9
:10243800964201D0002E00D1FE68B34202D030008F
:1024480000F084F820007E6100F084FD002D02D0A9
:102458002448FFF7BBFEBB689C4238D1EFF30583E5
:10246800002B34D1A389DB070FD5009B002B02D1A9
:1024780062B6BFF36F8F62B6BFF36F8F0423181C69
:1024880002DFEFF31083009372B60098FFF7A8FEFF
:10249800019BDB07A8D562B6BFF36F8F0423181C16
:1024A80002DFA1E77F210A4013432000237401F0D3
:1024B8009FF8A0E7280001F0A3F82800183001F0E1
:1024C800F2F800232800EB66FFF7A0FE9FE7009BC9
:1024D800002BDDD162B6BFF36F8FD9E75002002021
:1024E800680200206801002010B5047C1F2122002A
:1024F80003000A4000200C4211D1094910008B4208
:102508000DD008490868002809D0D9897F2905D83D
:102518000E215956044B1B68994200DA100010BD71
:102528008800002060000020740200200121044B74
:10253800044AC01A044BC0104343D1547047C046E4
:10254800D80100207D020020ABAAAAAA70B51825E0
:102558000B4B1E7CFFF7C8FF75430A4B0400ED18B0
:10256800280001F0A0F80022074B9A55944205D0A4
:10257800621E28000549D31700F080F870BDC046D8
:1025880050020020D80100207D02002035250010CF
:1025980070B5EFF3108572B6104A114B946818683D
:1025A800A04207D1FFF7D2FF002D02D162B6BFF3D8
:1025B8006F8F70BD00211960127C0A4B9B5C8B42A7
:1025C800F2D02000FFF790FF0028EDD0237CDB0637
:1025D80001D1FFF775FE2000E4E7C0465002002055
:1025E800700200207D020020024B1868984200D13A
:1025F800002070476400002070B50600FFF7F4FF64
:1026080000280ED0026943693400F517121BAB414C
:10261800002B06DC01D1002A03DBD843C017104089
:1026280070BD0148FCE7C046FFFFFF7F002010B5E2
:10263800034B1B68834201D1FFF7BAFA10BDC046AD
:102648007802002030B500280ED00B4B5B6898420A
:102658000AD00168002907D00A694B6904694569ED
:1026680012196B410A614B610368426813605A6032
:1026780000230360436030BD64000020F0B504000F
:1026880015001E0085B0531C02D1731C00D17CE0DC
:10269800A160EFF31083039372B6002E26DBFFF7D9
:1026A800C5FF00210090012040197141009AD317FD
:1026B80012184B413649226163610868496812184B
:1026C8004B411E00150001230293FFF78DFF070001
:1026D800304B9C465B680193002F1DD163462360F5
:1026E800019B63601C6063465C6027E0284B1868A8
:1026F800596802225242D317121A8B41521BB34116
:102708001100002B04DC01D1002A01D10121002392
:10271800636121610023D7E73869796922696369B0
:10272800994202DC28D1904226D9801A99417B68C7
:1027380038617961636027601C607C60FFF754FF33
:1027480084420FD1144B1B68002B0BD1029B002B2A
:1027580002D1FFF76BFF00900098FFF74DFF0021B3
:10276800FFF79AF9039B002B02D162B6BFF36F8F74
:102778002800310005B0F0BD121A8B412261636157
:10278800019B9F42AAD03F68A6E700250026EFE7F5
:10279800F00100206400002078020020F0B5050058
:1027A80089B0314B03911D60FFF71EFF2F490400CC
:1027B8000A684B68E81704920593002C10D0266924
:1027C800676900950190874202DC24D1AE4222D984
:1027D80032003B00009E019F921BBB412261636156
:1027E8002A00049C059D030012196B4100240A600D
:1027F8004B601D4B20001C60FFF7FEFE2100FFF719
:102808004BF9039BA34202D162B6BFF36F8FFFF768
:10281800BFFE09B0F0BDF31706960793069A079B0B
:102828000498059980185941002200230F4D226110
:102838006361286069602000FFF704FF802301229C
:102848001B0622616361039B002B02D162B6BFF3B2
:102858006F8F2000A3689847EFF3108372B6039335
:10286800014B1D68AD1B9EE778020020F001002097
:1028780010B5024800F03DFB10BDC046293E0010CF
:10288800F0B5436891B0019006938378170000264D
:102898009B0700D524E20126764257E04D788B1C31
:1028A8000993252D00D124E200220421099B14005C
:1028B800009205920A3209931F2C1FD8280020384D
:1028C80010281DD8FDF76CFC0E1C1C181C1C1C0FB6
:1028D8001C1C1C0C1C161C1C09000120044302E0D3
:1028E800022004430C43099801330578002DE2D1F6
:1028F800099337E00820F1E71020EFE77F2C28D86C
:102908002800303809280DD840252C4204D0009DD5
:10291800554328180090E6E7059D5543281805906B
:102928002020DBE72A2D0CD101CF6506F2D4002840
:1029380003DB202505902C43D5E74042059028204D
:10294800CCE72E2D05D140200442C7D0300011B06D
:10295800F0BD6C2D2CD026D8682D31D06A2D32D000
:102968004C2D30D0009B002B03DA40239C430023DE
:10297800009320232B431A00653A022A01D9612BC0
:1029880024D10722FB1D934308331F00B84B009244
:102998000493240752D53400009B9D19AC424FD1B3
:1029A800059B009A61E1742D9DD07A2D9BD0D9E7C3
:1029B8008020044200D191E78025AD002C438DE7AB
:1029C80080204000F5E7A020800087E728006338D2
:1029D800122800D9E2E0FDF7E3FB0A43E1E1E1E177
:1029E80043E1E1E1E1E1F2DCE1E111E1A3000123EE
:1029F80002CF0AAA117000930492CAE708CF049381
:102A0800002B01D19B4B0493630602D401235B4244
:102A180000930099049800F08BFE0090B9E72020FD
:102A28000199069B9847002813DB013C009BA342B1
:102A3800F5D3059B05949E19361BACE7059CF5E775
:102A4800049B01999B1B185D069B9847013400283D
:102A5800A4DA019B9A7804231343019A93701AE726
:102A680023063FD5A30538D50722073797430CCF50
:102A780002920393102322009A43039B0892002B8F
:102A880039DA0299039A00244B4294410293039441
:102A98008023089ADB0013439BB208930AAC0A23ED
:102AA80002980399220000F04EFE031B0793079B30
:102AB800089C049323005B0600D4A1E00123079A35
:102AC8009C43009B934200DC9AE0002D00D095E0E7
:102AD8001123089C9C43009B1AE008CF0293DB1744
:102AE8000393C7E708CFE205F8D5A20501D55BB285
:102AF800F4E71BB2F2E7029B039A1343CED16306B5
:102B0800CCD5009B002BC9D111339C43009B079364
:102B18000493594B23405A1E9341049AD31825E035
:102B280010239C43063B9C46802322001A400492B3
:102B38001C424AD021008133FF3319401C4242D045
:102B48000722FB1D93431F0003CB083703000B43E9
:102B58004DD1220016339A43089263064AD5009B4A
:102B6800002B47D117339C43009B079304932307FB
:102B780061D4E3070BD5079B049A0093059B934206
:102B880005DD9B1A079A9B180093059B0493049BE9
:102B980048E0102378259C461C43C5E7782B04D1D0
:102BA80010225B1B1A439446BEE725200199069B19
:102BB8009847002800DA4CE70236E8B29AE0082382
:102BC80000259C46B0E701CFC0E78022210008CF4E
:102BD8005200180011401442B8D0802221009200FF
:102BE800114098B21442B1D00499D8B2AEE7062386
:102BF8009C4308940AAC6346220054E7009B049364
:102C0800E30686D52B005A1E9341049A9B1801337C
:102C1800ACE720200199069B9847002800DA18E7BE
:102C2800089B01330893089A059B9342F1DC049BA7
:102C38000492F61AB618E30628D530200199069BA7
:102C48009847002800DA04E7002D17D10136340030
:102C5800009B079AF3181B1B9A4223DB1500002DD3
:102C680028D1079B049A1C19059B26009D1A32E05F
:102C78006A3E0010633E0010060400000236E8B207
:102C88000199069B98470028E1DAE2E61C4B1C42B2
:102C9800DDD02B20A30700D40B38640500D52D20E8
:102CA8000136EDE730200199069B0134984700284A
:102CB800CEDACEE60AAB013DE85C0199069B98475F
:102CC8000028CCDAC5E620200199069B01369847F2
:102CD800002800DABDE663199B1B002BF3DC099979
:102CE8000878002800D131E6252800D1D6E54B1C0C
:102CF800099301360199069B98470028EFDAA8E660
:102D08000604000070478023C900411880681B0230
:102D1800984202D39200505870475200505AFBE72D
:102D280010B58024C900411880682402A04202D34B
:102D38009200535010BD52005352FBE710B50122C8
:102D4800FFF7E1FF400810BD10B58024C900411805
:102D5800806801232402A04208D34868002A02D0D0
:102D680003434B6010BD98434860FBE74888002A3E
:102D780002D003434B80F5E798434880F2E710B54B
:102D880053000122FFF7CCFF10BD802310B58268E5
:102D980000241B029A4205D3FFF7D0FF0123834288
:102DA8006441E4B2200010BD802210B5806804237D
:102DB8001202904200D3DB18DB08C81AFDF74EFA5E
:102DC8001F23181A10BDF8B504000D00FFF7DDFF2A
:102DD80000281ED129002000FFF7B0FF01002000C5
:102DE800FFF7E2FF8300E3181E69002E12D10121CC
:102DF8008140E26820000A43E260290002221D6146
:102E08002B00FFF78DFF2B00032229002000FFF77E
:102E180087FFF8BD022231002000FFF774FF07008A
:102E28000300022229002000FFF77AFF3300032263
:102E380029002000FFF774FF2B000322390020002F
:102E4800FFF76EFF2B0002223100DFE7F8B5802381
:102E58000425DB029A4200D36D1907230026551B6F
:102E6800CC1D4D199C439D432D1BED080460290082
:102E7800A560E6602000FFF797FF8200170020009A
:102E88001B37FF0831000432103000F049FC3A00CB
:102E980031002000FFF773FF3300320031002000BB
:102EA800FFF73EFF310020000122FFF74DFFEA1B2C
:102EB80039002000FFF763FF3B0032003900200093
:102EC800FFF72EFF320029002000FFF758FFEB1B09
:102ED800320029002000FFF723FF290001222000EB
:102EE800FFF732FF39002000FFF76DFFF8BD002023
:102EF80070470FB407B504A901C90191FDF742FE57
:102F080003B008BC04B01847704710B500F008FCBF
:102F180010BD10B500F0FBFB10BD10B50100006836
:102F2800FDF784FE10BD10B5FDF7B0FEFEF704F8FE
:102F380010BD10B500210120FDF778FE10BD10B5B9
:102F4800FDF7B4FFFDF74CFEFDF756FEFEF758F807
:102F5800FFF7ACF8862040427047002802D162B6DD
:102F6800BFF36F8F7047BFF34F8F30BF62B6BFF3A9
:102F78006F8F704710B5FEF785F810B5FEF76EF83D
:102F8800002010BD10B544686068A16883681B689C
:102F9800002B0ED09847002808DBE0682169836879
:102FA800DB68002B05D09847002800DC10BD002006
:102FB800FCE758204042F9E7030000B500200E293D
:102FC8001AD80800FDF7ECF8080808081F1F0808B9
:102FD80008080F0F1B1F1F001A680C234B43985833
:102FE8000005C00F08E00A2907D19B685868292303
:102FF800184043425841C0B200BDDB68F6E75B6841
:103008005868C004EDE70120F6E749B2030010B59F
:10301800EA20102904DC5868FFF7CEFF0130C0B25F
:1030280010BD49B210B51400102906DCFEF7D2F81D
:10303800FDF7A8FC2060002010BD16204042FBE7E9
:103048000123F0B50700002587B05B42039101908A
:103058000293039B9D4224D22E006C003C1901234D
:10306800029AE35693420FD16B00F818FB560222DE
:1030780004930123C3562100059300F048FB049BE9
:1030880001352370059B6370039B01360234B342FC
:10309800E5D1019B1B785BB20293019B023301933C
:1030A800D7E707B0F0BDD0231B065B6800200B6094
:1030B80070470A0010B503691000D96888430100F9
:1030C800D02000064161DC68196921401140816205
:1030D800D9681B69114099434162002010BD0A005C
:1030E80010B503691000D96888430100D020000694
:1030F8008161DC681969214011404162D9681B6906
:10310800114099438162002010BD03690800DA6804
:103118009043D0221206D061DB6800200B40D362B6
:10312800704730B503690024586800280FD1002A79
:103138001BD11620404230BD20609868814210D1D2
:103148009C600EE005680400002DF0D0280088423D
:10315800F8D10868002CEFD19C685860A14200D1D2
:10316800986000200860824206D05A680A609A680F
:103178005960002A00D199600020DCE710B5436847
:103188005B68002B00D09847002010BD70B50E007A
:1031980015000F21002230001C00FEF7B3FE80232B
:1031A8009B039D420FD08023A101DB042340C90F5C
:1031B800ED010AD58900002B01D00823194301220B
:1031C8003000FEF79FFE002070BD002BF7D00223D1
:1031D800F4E710B5002203210D20FDF73DFE0D2078
:1031E800FDF72EFE10BD30B50469D0200006036936
:1031F800E56853400B40AB430D00C361036A53407D
:103208009D432B00E5681D4023692B40C362036A78
:103218005A400A40E168236911409943C16200207D
:1032280030BD30B50368136005790468ED00641992
:10323800A34202D30220404230BD0833DC1E24786A
:103248008C42F0D10020F7E770B504008D004519D5
:10325800AC4201D1002070BD2078261D8006800E6A
:1032680000F088F92188207849058006C90E800E6B
:10327800FEF7A8FDA17820788A078006C907D20F33
:10328800C90F800EFEF7B6FD6178207849068006E2
:10329800090F800EFEF726FE207861788006C9099E
:1032A800800EFEF70FFEA178207809078006C90F67
:1032B800800EFEF7F9FDA178207849078006C90F2E
:1032C800800EFEF72FFEA178207889068006890FE8
:1032D800800EFEF7D7FD2078A17880068909800E38
:1032E800FEF7BEFDE178207889078006890F800EF9
:1032F800FEF7A4FDE178207809078006890F800E83
:10330800FEF78AFD3400A3E70020704700207047CD
:10331800202243681B6898691042FCD119607047E5
:1033280043681B685B681A07D20F590701D5082143
:103338000A4302210B4200D00A4301210B409800A6
:103348001043704710B5036911CB11C1002010BD9F
:1033580030B52025436800201B689C692C4202D1A7
:10336800141A002C00DC30BD0C5C01301C60F4E742
:1033780030B51024436800201B68151A002D02DDA3
:103388009D69254200D030BD1D680D540130F4E719
:103398002022F8B5436805691C680600A36B13432F
:1033A800A3632B7C002B16D000232B746B69002B96
:1033B80011D02022A36B13420DD08022236B12025E
:1033C800134209D00123A2691A4205D12B74A26BBA
:1033D800DB181343A363F8BDEFF3108772B6300010
:1033E8006B69A9699847002FE3D162B6BFF36F8F65
:1033F800DFE701214268036912681974936B213170
:103408008B4393637047436801201B689B691B07C4
:10341800DB0F5840704702694368127A1B68002A1C
:1034280006D1196B01320800FF32104011420BD04F
:103438002022996B0020114206D0D96B013011422D
:1034480002D198690006C00F704743681A68502374
:10345800916B0B4393637047502143681A68936BD1
:103468008B439363704702694368127A1B68002A8A
:1034780006D1196B8022080092001040114208D032
:103488009A6B0020D20604D59B690130DB06DB0F5E
:103498005840704743681A68F023916BDB000B4370
:1034A8009363704710B50400FFF7DDFF002802D1D1
:1034B8002000FFF7B0FF10BD012070470369596174
:1034C8009A61704710B50224436802691B68196C39
:1034D800214203D05C64996BA14399635369002B23
:1034E8000AD0EFF3108472B6536991699847002C9B
:1034F80002D162B6BFF36F8F10BD10B50022032151
:103508001420FDF7A9FC1420FDF79AFC10BD10B596
:103518000122FEF719F910BDF0B585B017000A9A17
:1035280002900391934201D2FFF724FD1D0E1E0263
:103538003000002329000A9AFCF7AEFE00290AD0C1
:103548002B00002402983A0003990094FEF74CFBE4
:10355800012005B0F0BD802304009B00984201D2F1
:10356800802464000023220030002900FCF794FE28
:103578000300E7E70123D022834010B512069362C7
:1035880005219361FEF71EFC10BD10B543690400C8
:10359800002B07D100230122E168487802434A70D2
:1035A800584210BD98470028F4D0C1174318E26864
:1035B8004B40FF2B00DDFF231370ECE7002808D0F9
:1035C800C36800205A78D20703D518784342584177
:1035D800C0B27047EFF3108372B6FEE710B5FFF77D
:1035E800F9FF10B5EFF3108372B6FFF7BCFCF9E7EB
:1035F8000368426813605A600023036043607047A1
:1036080010B50400FFF7F4FF0222237C93432374D0
:103618000023A36010BD10B5EFF3108472B6FEF757
:10362800F5FD002C02D162B6BFF36F8F10BD2823C1
:1036380010B5027C04001A420BD18368002B01D01C
:10364800FFF7DEFF0422237C200093432374FEF758
:10365800DDFD10BD10B5EFF3108472B61838FFF712
:10366800E6FF002C02D162B6BFF36F8F10BD70B5B4
:103678000400EFF3108572B60426037C33420CD0A5
:10368800183000F010F8237C2000B3432374FEF7B1
:10369800BDFD2800FEF7FEFD70BD002DFCD162B611
:1036A800BFF36F8FF8E770B50400EFF3108572B6BB
:1036B8000368002B1BD0FEF797FF06002000FEF7DB
:1036C800C1FF802300221B0622616361A64206D047
:1036D8000020002D02D162B6BFF36F8F70BDFEF7D8
:1036E800A5FFFEF789FF0021FEF7D6F9F0E7036989
:1036F800012B09D1802342691B069A4204D18023F9
:1037080000221B060261436116204042E1E70023C4
:1037180010B59A4200D110BDCC5CC4540133F8E70F
:1037280003008218934200D1704719700133F9E7FA
:10373800030041188B4202D01A78002A01D1181AC6
:1037480070470133F6E7F0B50D003721C91A8FB07D
:10375800C9B20D911F2104000B400C930C99E3B2E0
:10376800082955D0102900D164E0E907600808430A
:10377800690806900791A008A9070843A9080890B6
:103788000991089E099F06980799801979410E07A3
:10379800B446060900966646009F37430E0900970F
:1037A8000196009E019F801979410E06B44667462E
:1037B800060A3E4302960E0A0396029E039F80194C
:1037C80079410E04B4466746060C3E4304960E0C37
:1037D8000596049E059F8019794100260A910B964B
:1037E8000A9E0B9F801979414E07CD080521C40810
:1037F8003443614349005B1ADBB2092B12D901201B
:1038080000210A3B24184D41DBB21DE00200A5E768
:1038180007210B4069078C466646E008E90806431D
:1038280034000D00303313702300501C2B43EDD1AE
:103838000FB0F0BD0F210B4029078C4666462009C2
:103848002909064334000D00092BEBD90D99CB1833
:04385800DBB2E7E711
:08385C0018D2FF7F01000000FB
:1038640000000000A438001000000000C038001060
:1038740000000000DC380010DD140010000000001F
:10388400051A00100000000000000000F8380010C5
:10389400A510001000000000000000001439001002
:1038A400D63D0010203B0010343A00106E0000207A
:1038B400140000201113001000000000FC3D001053
:1038C40000000000243A00107200002000000000F4
:1038D4000000000000000000163E00103800002028
:1038E400503A0010740000201C000020A51800109D
:1038F40000000000C93D00100C3B00100000000057
:103904006C000020000000008D2F0010000000005B
:10391400F03D0010183C0010003A00107000002028
:0C3924000C0200208531001000000000A3
:10393000000000003B2F0010000000003B2F001093
:10394000000000003B2F0010000000003B2F001083
:10395000000000003B2F0010000000003B2F001073
:10396000000000003B2F0010000000003B2F001063
:10397000000000003B2F0010000000003B2F001053
:10398000000000003B2F0010000000003B2F001043
:10399000000000003B2F00101439001061150010CA
:1039A000000000003B2F0010000000003B2F001023
:1039B000000000003B2F0010000000003B2F001013
:1039C000000000003B2F0010000000003B2F001003
:1039D000DC380010CD340010000000003B2F001038
:1039E000000000003B2F0010000000003B2F0010E3
:1039F000000000003B2F0010000000003B2F0010D3
:103A0000E5150010AF300010EF310010BB30001092
:103A1000E730001013310010953100102B310010E9
:043A2000311500104C
:103A2400A1160010B9160010C9160010E5160010F2
:103A3400C910001009110010000000002B30001004
:0C3A440013300010000000000000000023
:103A50000917001019330010293300101735001012
:103A60004D33001059330010793300109933001092
:103A7000FB3300101F340010533400106134001069
:103A80000F3400106F3400109D3400103D170010EB
:103A9000AD340010C1340010C534001009170010F7
:103AA0001933001029330010173500104D33001062
:103AB0000000000000000000000000000000000006
:103AC00000000000000000000000000000000000F6
:103AD00000000000000000000000000000000000E6
:083AE0000000000000000000DE
:103AE800000A010A020A030A040C050A0605070B64
:103AF800080B090B0A0C0B0C0CFF0DFF0E0D0FFF2A
:103B080010FF000000002050A4380010050000003D
:103B1800C03800100A000000008000400040024049
:103B28000080024000C0024000000640103C001027
:103B3800010000007D0000000600000002000000F7
:103B480001000000640000000500000005000000FE
:103B58000000000000000000405973074059730737
:103B68000000000000000000405973074059730727
:103B78000000000000000000405973074059730717
:103B88000000000000000000405973074059730707
:103B98000200000000000000001BB700001BB70077
:103BA80001000000000000004059730740597307E6
:103BB80000000000000000004059730740597307D7
:103BC8000000000000000000006CDC02006CDC0259
:103BD8000000000000000000006CDC02006CDC0249
:103BE80000000000000000001BB70000006CDC02B1
:103BF8000C000000A00A00001000000000000000F7
:103C08000000000000000000183C00100000000048
:103C1800FFFFFF3FDB310010283C001001000000CF
:103C2800303C0010020000008008000081080400F9
:103C3800643800106438001084380010943800107C
:103C4800A4380010A4380010496F542050726F74C3
:103C58006F636F6C205374617274696E672E2E2EB9
:103C68000A0072302F61313A2020307825303878B8
:103C7800202072312F61323A202030782530387870
:103C8800202072322F61333A20203078253038785E
:103C98000A0072332F61343A202030782530387882
:103CA800207231322F69703A2020307825303878E8
:103CB800207231342F6C723A2020307825303878D1
:103CC8000A0020787073723A2020307825303878CE
:103CD8000A004661756C74696E6720696E73747248
:103CE800756374696F6E20616464726573732028EC
:103CF8007231352F7063293A203078253038780AA8
:103D080000556E68616E646C6564204952516E3A64
:103D18002025640A005265736572766564204578CB
:103D280063657074696F6E20280053707572696FCF
:103D3800757320696E7465727275707420284952A3
:103D4800512000535053454C20696E2074687265A9
:103D58006164206D6F646520646F6573206E6F7495
:103D680020696E646963617465205053500A002AA3
:103D78002A2A2A2A2048415244204641554C542098
:103D88002A2A2A2A2A0A00415243485F45584345AD
:103D98005054207769746820726561736F6E2025AE
:103DA800780A0A002A2A2A2A2A2025732025642923
:103DB800202A2A2A2A2A0A0061626F727428290A8C
:103DC8000070696F40353032303030303000636C0D
:103DD8006F636B2D636F6E74726F6C6C65724034B9
:103DE80030303038303030006770696F2D706F7246
:103DF8007440300072657365742D636F6E74726FF2
:103E08006C6C65724034303030633030300075612E
:103E18007274403430303334303030006D61696E44
:103E2800002A2A2A20426F6F74696E67205A6570CB
:103E3800687972204F53206275696C642076342E3D
:103E4800342E302D3832362D673962653665653740
:103E58006436343263202A2A2A0A00286E756C6C6C
:103E680029002A666C6F61742A000B0A0E0C0F1069
:103E7800050A0B0E0C0F100A0B0D0C0F100B0F1070
:0C3E88000A0F100B0E0C050708090400BF
:103E9400F72E001000000000832F00100000000027
:103EA40000000000A02E6300A02E630000C20100E9
:103EB40000010300000000000000000000000000FA
:103EC400000000000000000000400340203C0010FF
:103ED4000000000000000000A438001006000000EC
:103EE40003350010000000001533001011330010DA
:0C3EF400C80000006400002064000020F2
:0C3F0000000000000000000000000000B5
:043F0C0015E015E0C7
:0400000510000DEDED
:00000001FF
